{
  "contractName": "Escrow",
  "abi": [
    {
      "inputs": [
        {
          "internalType": "address",
          "name": "_payer",
          "type": "address"
        },
        {
          "internalType": "address payable",
          "name": "_recipient",
          "type": "address"
        },
        {
          "internalType": "uint256",
          "name": "_amount",
          "type": "uint256"
        }
      ],
      "stateMutability": "nonpayable",
      "type": "constructor"
    },
    {
      "inputs": [],
      "name": "amount",
      "outputs": [
        {
          "internalType": "uint256",
          "name": "",
          "type": "uint256"
        }
      ],
      "stateMutability": "view",
      "type": "function",
      "constant": true
    },
    {
      "inputs": [],
      "name": "lawyer",
      "outputs": [
        {
          "internalType": "address",
          "name": "",
          "type": "address"
        }
      ],
      "stateMutability": "view",
      "type": "function",
      "constant": true
    },
    {
      "inputs": [],
      "name": "payer",
      "outputs": [
        {
          "internalType": "address",
          "name": "",
          "type": "address"
        }
      ],
      "stateMutability": "view",
      "type": "function",
      "constant": true
    },
    {
      "inputs": [],
      "name": "recipient",
      "outputs": [
        {
          "internalType": "address payable",
          "name": "",
          "type": "address"
        }
      ],
      "stateMutability": "view",
      "type": "function",
      "constant": true
    },
    {
      "inputs": [],
      "name": "deposit",
      "outputs": [],
      "stateMutability": "payable",
      "type": "function",
      "payable": true
    },
    {
      "inputs": [],
      "name": "release",
      "outputs": [],
      "stateMutability": "nonpayable",
      "type": "function"
    },
    {
      "inputs": [],
      "name": "balanceOf",
      "outputs": [
        {
          "internalType": "uint256",
          "name": "",
          "type": "uint256"
        }
      ],
      "stateMutability": "view",
      "type": "function",
      "constant": true
    }
  ],
  "bytecode": "0x608060405234801561001057600080fd5b5060405161091338038061091383398181016040528101906100329190610142565b826000806101000a81548173ffffffffffffffffffffffffffffffffffffffff021916908373ffffffffffffffffffffffffffffffffffffffff16021790555081600160006101000a81548173ffffffffffffffffffffffffffffffffffffffff021916908373ffffffffffffffffffffffffffffffffffffffff16021790555033600260006101000a81548173ffffffffffffffffffffffffffffffffffffffff021916908373ffffffffffffffffffffffffffffffffffffffff16021790555080600381905550505050610224565b600081519050610112816101df565b92915050565b600081519050610127816101f6565b92915050565b60008151905061013c8161020d565b92915050565b60008060006060848603121561015757600080fd5b600061016586828701610103565b935050602061017686828701610118565b92505060406101878682870161012d565b9150509250925092565b600061019c826101b5565b9050919050565b60006101ae826101b5565b9050919050565b600073ffffffffffffffffffffffffffffffffffffffff82169050919050565b6000819050919050565b6101e881610191565b81146101f357600080fd5b50565b6101ff816101a3565b811461020a57600080fd5b50565b610216816101d5565b811461022157600080fd5b50565b6106e0806102336000396000f3fe6080604052600436106100705760003560e01c8063722713f71161004e578063722713f7146100f657806386d1a69f14610121578063aa8c217c14610138578063d0e30db01461016357610070565b8063123119cd146100755780633bfb6e31146100a057806366d003ac146100cb575b600080fd5b34801561008157600080fd5b5061008a61016d565b604051610097919061057a565b60405180910390f35b3480156100ac57600080fd5b506100b5610191565b6040516100c2919061057a565b60405180910390f35b3480156100d757600080fd5b506100e06101b7565b6040516100ed9190610595565b60405180910390f35b34801561010257600080fd5b5061010b6101dd565b6040516101189190610630565b60405180910390f35b34801561012d57600080fd5b506101366101e5565b005b34801561014457600080fd5b5061014d610326565b60405161015a9190610630565b60405180910390f35b61016b61032c565b005b60008054906101000a900473ffffffffffffffffffffffffffffffffffffffff1681565b600260009054906101000a900473ffffffffffffffffffffffffffffffffffffffff1681565b600160009054906101000a900473ffffffffffffffffffffffffffffffffffffffff1681565b600047905090565b600260009054906101000a900473ffffffffffffffffffffffffffffffffffffffff1673ffffffffffffffffffffffffffffffffffffffff163373ffffffffffffffffffffffffffffffffffffffff1614610275576040517f08c379a000000000000000000000000000000000000000000000000000000000815260040161026c90610610565b60405180910390fd5b60035447146102b9576040517f08c379a00000000000000000000000000000000000000000000000000000000081526004016102b0906105b0565b60405180910390fd5b600160009054906101000a900473ffffffffffffffffffffffffffffffffffffffff1673ffffffffffffffffffffffffffffffffffffffff166108fc6003549081150290604051600060405180830381858888f19350505050158015610323573d6000803e3d6000fd5b50565b60035481565b60008054906101000a900473ffffffffffffffffffffffffffffffffffffffff1673ffffffffffffffffffffffffffffffffffffffff163373ffffffffffffffffffffffffffffffffffffffff16146103ba576040517f08c379a00000000000000000000000000000000000000000000000000000000081526004016103b1906105f0565b60405180910390fd5b6003543411156103ff576040517f08c379a00000000000000000000000000000000000000000000000000000000081526004016103f6906105d0565b60405180910390fd5b565b61040a8161066e565b82525050565b6104198161065c565b82525050565b600061042c60338361064b565b91507f43616e6e6f742073656e64207468652066756e6473206265666f72652066756c60008301527f6c20616d6f756e742069732072656163686564000000000000000000000000006020830152604082019050919050565b600061049260278361064b565b91507f43616e6e6f742073656e64206d6f7265207468616e2074686520657363726f7760008301527f20616d6f756e74000000000000000000000000000000000000000000000000006020830152604082019050919050565b60006104f860188361064b565b91507f53656e646572206d7573742062652074686520706179657200000000000000006000830152602082019050919050565b600061053860178361064b565b91507f4f6e6c79206c61777965722063616e2072656c656173650000000000000000006000830152602082019050919050565b610574816106a0565b82525050565b600060208201905061058f6000830184610410565b92915050565b60006020820190506105aa6000830184610401565b92915050565b600060208201905081810360008301526105c98161041f565b9050919050565b600060208201905081810360008301526105e981610485565b9050919050565b60006020820190508181036000830152610609816104eb565b9050919050565b600060208201905081810360008301526106298161052b565b9050919050565b6000602082019050610645600083018461056b565b92915050565b600082825260208201905092915050565b600061066782610680565b9050919050565b600061067982610680565b9050919050565b600073ffffffffffffffffffffffffffffffffffffffff82169050919050565b600081905091905056fea2646970667358221220b453769cacb2a4ea673b56b1d51aba4722ff2b91cb927cdfd5a16ceba2554e0364736f6c63430008000033",
  "immutableReferences": {},
  "source": "// SPDX-License-Identifier: GPL-3.0\n\npragma solidity 0.8.0;\n\ncontract Escrow {\n    address public payer;\n    address payable public recipient;\n    address public lawyer;\n    uint public amount;\n\n    constructor(\n        address _payer,\n        address payable _recipient,\n        uint _amount) {\n            payer = _payer;\n            recipient = _recipient;\n            lawyer = msg.sender;\n            amount = _amount;\n    }\n\n    function deposit() payable public {\n        require(msg.sender == payer, \"Sender must be the payer\");\n        require(msg.value <= amount, \"Cannot send more than the escrow amount\");\n    }\n\n    function release() public {\n        require(msg.sender == lawyer, \"Only lawyer can release\");\n        require(address(this).balance == amount, \"Cannot send the funds before full amount is reached\");\n        recipient.transfer(amount);\n    }\n\n    function balanceOf() view public returns (uint) {\n        return address(this).balance;\n    }\n\n}",
  "sourcePath": "/home/ugo/dev/blockchain/smart-contracts/escrow/contracts/Escrow.sol",
  "compiler": {
    "name": "solc",
    "version": "0.8.0+commit.c7dfd78e.Emscripten.clang"
  },
  "schemaVersion": "3.3.4",
  "updatedAt": "2021-04-12T20:22:20.519Z",
  "networkType": "ethereum",
  "devdoc": {
    "kind": "dev",
    "methods": {},
    "version": 1
  },
  "userdoc": {
    "kind": "user",
    "methods": {},
    "version": 1
  }
}